{
  "contractName": "KYC",
  "abi": [
    {
      "inputs": [],
      "payable": false,
      "stateMutability": "nonpayable",
      "type": "constructor",
      "signature": "constructor"
    },
    {
      "anonymous": false,
      "inputs": [
        {
          "indexed": true,
          "name": "sender",
          "type": "address"
        },
        {
          "indexed": false,
          "name": "status",
          "type": "bool"
        },
        {
          "indexed": false,
          "name": "msg",
          "type": "string"
        }
      ],
      "name": "isAdminEvent",
      "type": "event",
      "signature": "0x7625930be11e2f83fcd7fd4659ad575891de33466bd2e563a895fcbc8e8b17f1"
    },
    {
      "anonymous": false,
      "inputs": [
        {
          "indexed": true,
          "name": "sender",
          "type": "address"
        },
        {
          "indexed": false,
          "name": "status",
          "type": "bool"
        },
        {
          "indexed": false,
          "name": "msg",
          "type": "string"
        }
      ],
      "name": "noSuchBankEvent",
      "type": "event",
      "signature": "0x9080152ba887e48daa7f3b6f6c71b2484bdf77dec6957884348fd6930bfe8e4e"
    },
    {
      "anonymous": false,
      "inputs": [
        {
          "indexed": true,
          "name": "sender",
          "type": "address"
        },
        {
          "indexed": false,
          "name": "status",
          "type": "bool"
        },
        {
          "indexed": false,
          "name": "msg",
          "type": "string"
        }
      ],
      "name": "noSuchUserEvent",
      "type": "event",
      "signature": "0x711f53992653efd84e303c9bbea6e93fb98099ed7adb18629b87abc9a3d42e15"
    },
    {
      "anonymous": false,
      "inputs": [
        {
          "indexed": true,
          "name": "sender",
          "type": "address"
        },
        {
          "indexed": false,
          "name": "status",
          "type": "bool"
        },
        {
          "indexed": false,
          "name": "msg",
          "type": "string"
        }
      ],
      "name": "invalidBankEvent",
      "type": "event",
      "signature": "0x881c572b44306d3454e8081497172916297eede05f5c23bc734a15beffbe853f"
    },
    {
      "anonymous": false,
      "inputs": [
        {
          "indexed": true,
          "name": "sender",
          "type": "address"
        },
        {
          "indexed": false,
          "name": "status",
          "type": "bool"
        },
        {
          "indexed": false,
          "name": "msg",
          "type": "string"
        }
      ],
      "name": "invalidUserEvent",
      "type": "event",
      "signature": "0x5b62f6bf789ef05caa8e018b3a133d934aa8402c32b8e60ea6a70ac889910fff"
    },
    {
      "constant": true,
      "inputs": [],
      "name": "getAdminID",
      "outputs": [
        {
          "name": "_id",
          "type": "address"
        }
      ],
      "payable": false,
      "stateMutability": "view",
      "type": "function",
      "signature": "0x61f4dcf1"
    },
    {
      "constant": true,
      "inputs": [
        {
          "name": "_addr",
          "type": "address"
        }
      ],
      "name": "isAdmin",
      "outputs": [
        {
          "name": "",
          "type": "bool"
        }
      ],
      "payable": false,
      "stateMutability": "view",
      "type": "function",
      "signature": "0x24d7806c"
    },
    {
      "constant": true,
      "inputs": [
        {
          "name": "_addr",
          "type": "address"
        }
      ],
      "name": "isBank",
      "outputs": [
        {
          "name": "",
          "type": "bool"
        }
      ],
      "payable": false,
      "stateMutability": "view",
      "type": "function",
      "signature": "0xec676a49"
    },
    {
      "constant": false,
      "inputs": [
        {
          "name": "_aadharNo",
          "type": "string"
        }
      ],
      "name": "isalreadyRegisteredUser",
      "outputs": [
        {
          "name": "",
          "type": "bool"
        }
      ],
      "payable": false,
      "stateMutability": "nonpayable",
      "type": "function",
      "signature": "0xbdbb1f2d"
    },
    {
      "constant": false,
      "inputs": [
        {
          "name": "_firstName",
          "type": "string"
        },
        {
          "name": "_lastName",
          "type": "string"
        },
        {
          "name": "_dateOfBirth",
          "type": "string"
        },
        {
          "name": "_aadharNo",
          "type": "string"
        },
        {
          "name": "_email",
          "type": "string"
        },
        {
          "name": "_mobileNo",
          "type": "string"
        },
        {
          "name": "_sign",
          "type": "bytes"
        },
        {
          "name": "_hashmessage",
          "type": "bytes"
        },
        {
          "name": "_useraddress",
          "type": "address"
        }
      ],
      "name": "updateKYC",
      "outputs": [],
      "payable": false,
      "stateMutability": "nonpayable",
      "type": "function",
      "signature": "0xb7bc9650"
    },
    {
      "constant": false,
      "inputs": [
        {
          "name": "_name",
          "type": "string"
        },
        {
          "name": "_id",
          "type": "address"
        },
        {
          "name": "_email",
          "type": "string"
        }
      ],
      "name": "registerBank",
      "outputs": [],
      "payable": false,
      "stateMutability": "nonpayable",
      "type": "function",
      "signature": "0xed66526d"
    },
    {
      "constant": false,
      "inputs": [
        {
          "name": "user_add",
          "type": "address"
        }
      ],
      "name": "gethash",
      "outputs": [
        {
          "name": "",
          "type": "address"
        },
        {
          "name": "",
          "type": "bytes"
        },
        {
          "name": "",
          "type": "bytes"
        }
      ],
      "payable": false,
      "stateMutability": "nonpayable",
      "type": "function",
      "signature": "0xba8e228d"
    },
    {
      "constant": false,
      "inputs": [
        {
          "name": "_firstName",
          "type": "string"
        },
        {
          "name": "_lastName",
          "type": "string"
        },
        {
          "name": "_dateOfBirth",
          "type": "string"
        },
        {
          "name": "_aadharNo",
          "type": "string"
        },
        {
          "name": "_email",
          "type": "string"
        },
        {
          "name": "_mobileNo",
          "type": "string"
        },
        {
          "name": "_sign",
          "type": "bytes"
        },
        {
          "name": "_hashmessage",
          "type": "bytes"
        },
        {
          "name": "_useraddress",
          "type": "address"
        }
      ],
      "name": "registerUser",
      "outputs": [],
      "payable": false,
      "stateMutability": "nonpayable",
      "type": "function",
      "signature": "0xd3d3ddd2"
    },
    {
      "constant": true,
      "inputs": [
        {
          "name": "_bankid",
          "type": "address"
        },
        {
          "name": "_useraddress",
          "type": "address"
        }
      ],
      "name": "isValidBank",
      "outputs": [
        {
          "name": "",
          "type": "bool"
        }
      ],
      "payable": false,
      "stateMutability": "view",
      "type": "function",
      "signature": "0x56429eb5"
    },
    {
      "constant": false,
      "inputs": [
        {
          "name": "_userid",
          "type": "address"
        }
      ],
      "name": "getLastModified",
      "outputs": [
        {
          "name": "",
          "type": "uint256"
        }
      ],
      "payable": false,
      "stateMutability": "nonpayable",
      "type": "function",
      "signature": "0x9081fbbf"
    },
    {
      "constant": false,
      "inputs": [
        {
          "name": "_userid",
          "type": "address"
        }
      ],
      "name": "getUserforBank",
      "outputs": [
        {
          "name": "firstName",
          "type": "string"
        },
        {
          "name": "lastName",
          "type": "string"
        },
        {
          "name": "dateOfBirth",
          "type": "string"
        },
        {
          "name": "aadharNo",
          "type": "string"
        },
        {
          "name": "email",
          "type": "string"
        },
        {
          "name": "mobileNo",
          "type": "string"
        }
      ],
      "payable": false,
      "stateMutability": "nonpayable",
      "type": "function",
      "signature": "0x505f1fe4"
    },
    {
      "constant": false,
      "inputs": [
        {
          "name": "_userid",
          "type": "address"
        }
      ],
      "name": "isValidUser",
      "outputs": [
        {
          "name": "",
          "type": "bool"
        }
      ],
      "payable": false,
      "stateMutability": "nonpayable",
      "type": "function",
      "signature": "0xf3c95c60"
    },
    {
      "constant": false,
      "inputs": [
        {
          "name": "_userid",
          "type": "address"
        }
      ],
      "name": "getUserforUser",
      "outputs": [
        {
          "name": "firstName",
          "type": "string"
        },
        {
          "name": "lastName",
          "type": "string"
        },
        {
          "name": "dateOfBirth",
          "type": "string"
        },
        {
          "name": "aadharNo",
          "type": "string"
        },
        {
          "name": "email",
          "type": "string"
        },
        {
          "name": "mobileNo",
          "type": "string"
        }
      ],
      "payable": false,
      "stateMutability": "nonpayable",
      "type": "function",
      "signature": "0x5f027dd4"
    },
    {
      "constant": false,
      "inputs": [
        {
          "name": "_id",
          "type": "address"
        }
      ],
      "name": "getBank",
      "outputs": [
        {
          "name": "name",
          "type": "string"
        },
        {
          "name": "id",
          "type": "address"
        },
        {
          "name": "email",
          "type": "string"
        }
      ],
      "payable": false,
      "stateMutability": "nonpayable",
      "type": "function",
      "signature": "0x83e0c31d"
    },
    {
      "constant": false,
      "inputs": [
        {
          "name": "_name",
          "type": "string"
        },
        {
          "name": "uid",
          "type": "address"
        }
      ],
      "name": "addACL",
      "outputs": [
        {
          "name": "",
          "type": "bool"
        }
      ],
      "payable": false,
      "stateMutability": "nonpayable",
      "type": "function",
      "signature": "0xd717be21"
    },
    {
      "constant": false,
      "inputs": [
        {
          "name": "_name",
          "type": "string"
        }
      ],
      "name": "alreadyExistingBank",
      "outputs": [
        {
          "name": "",
          "type": "bool"
        }
      ],
      "payable": false,
      "stateMutability": "nonpayable",
      "type": "function",
      "signature": "0x419db673"
    }
  ],
  "bytecode": "0x6060604052603c600055341561001457600080fd5b737fbff5d4496fd3539c9a73ea54280982ca13e9e3600660000160006101000a81548173ffffffffffffffffffffffffffffffffffffffff021916908373ffffffffffffffffffffffffffffffffffffffff16021790555061412f8061007b6000396000f3006060604052600436106100e6576000357c0100000000000000000000000000000000000000000000000000000000900463ffffffff16806324d7806c146100eb578063419db6731461013c578063505f1fe4146101b157806356429eb51461047f5780635f027dd4146104ef57806361f4dcf1146107bd57806383e0c31d146108125780639081fbbf14610963578063b7bc9650146109b0578063ba8e228d14610c01578063bdbb1f2d14610d52578063d3d3ddd214610dc7578063d717be2114611018578063ec676a49146110ac578063ed66526d146110fd578063f3c95c60146111bc575b600080fd5b34156100f657600080fd5b610122600480803573ffffffffffffffffffffffffffffffffffffffff1690602001909190505061120d565b604051808215151515815260200191505060405180910390f35b341561014757600080fd5b610197600480803590602001908201803590602001908080601f0160208091040260200160405190810160405280939291908181526020018383808284378201915050505050509190505061126a565b604051808215151515815260200191505060405180910390f35b34156101bc57600080fd5b6101e8600480803573ffffffffffffffffffffffffffffffffffffffff169060200190919050506113b5565b6040518080602001806020018060200180602001806020018060200187810387528d818151815260200191508051906020019080838360005b8381101561023c578082015181840152602081019050610221565b50505050905090810190601f1680156102695780820380516001836020036101000a031916815260200191505b5087810386528c818151815260200191508051906020019080838360005b838110156102a2578082015181840152602081019050610287565b50505050905090810190601f1680156102cf5780820380516001836020036101000a031916815260200191505b5087810385528b818151815260200191508051906020019080838360005b838110156103085780820151818401526020810190506102ed565b50505050905090810190601f1680156103355780820380516001836020036101000a031916815260200191505b5087810384528a818151815260200191508051906020019080838360005b8381101561036e578082015181840152602081019050610353565b50505050905090810190601f16801561039b5780820380516001836020036101000a031916815260200191505b50878103835289818151815260200191508051906020019080838360005b838110156103d45780820151818401526020810190506103b9565b50505050905090810190601f1680156104015780820380516001836020036101000a031916815260200191505b50878103825288818151815260200191508051906020019080838360005b8381101561043a57808201518184015260208101905061041f565b50505050905090810190601f1680156104675780820380516001836020036101000a031916815260200191505b509c5050505050505050505050505060405180910390f35b341561048a57600080fd5b6104d5600480803573ffffffffffffffffffffffffffffffffffffffff1690602001909190803573ffffffffffffffffffffffffffffffffffffffff16906020019091905050611ba9565b604051808215151515815260200191505060405180910390f35b34156104fa57600080fd5b610526600480803573ffffffffffffffffffffffffffffffffffffffff16906020019091905050611d00565b6040518080602001806020018060200180602001806020018060200187810387528d818151815260200191508051906020019080838360005b8381101561057a57808201518184015260208101905061055f565b50505050905090810190601f1680156105a75780820380516001836020036101000a031916815260200191505b5087810386528c818151815260200191508051906020019080838360005b838110156105e05780820151818401526020810190506105c5565b50505050905090810190601f16801561060d5780820380516001836020036101000a031916815260200191505b5087810385528b818151815260200191508051906020019080838360005b8381101561064657808201518184015260208101905061062b565b50505050905090810190601f1680156106735780820380516001836020036101000a031916815260200191505b5087810384528a818151815260200191508051906020019080838360005b838110156106ac578082015181840152602081019050610691565b50505050905090810190601f1680156106d95780820380516001836020036101000a031916815260200191505b50878103835289818151815260200191508051906020019080838360005b838110156107125780820151818401526020810190506106f7565b50505050905090810190601f16801561073f5780820380516001836020036101000a031916815260200191505b50878103825288818151815260200191508051906020019080838360005b8381101561077857808201518184015260208101905061075d565b50505050905090810190601f1680156107a55780820380516001836020036101000a031916815260200191505b509c5050505050505050505050505060405180910390f35b34156107c857600080fd5b6107d06124dd565b604051808273ffffffffffffffffffffffffffffffffffffffff1673ffffffffffffffffffffffffffffffffffffffff16815260200191505060405180910390f35b341561081d57600080fd5b610849600480803573ffffffffffffffffffffffffffffffffffffffff1690602001909190505061250a565b60405180806020018473ffffffffffffffffffffffffffffffffffffffff1673ffffffffffffffffffffffffffffffffffffffff16815260200180602001838103835286818151815260200191508051906020019080838360005b838110156108bf5780820151818401526020810190506108a4565b50505050905090810190601f1680156108ec5780820380516001836020036101000a031916815260200191505b50838103825284818151815260200191508051906020019080838360005b8381101561092557808201518184015260208101905061090a565b50505050905090810190601f1680156109525780820380516001836020036101000a031916815260200191505b509550505050505060405180910390f35b341561096e57600080fd5b61099a600480803573ffffffffffffffffffffffffffffffffffffffff169060200190919050506128d4565b6040518082815260200191505060405180910390f35b34156109bb57600080fd5b610bff600480803590602001908201803590602001908080601f0160208091040260200160405190810160405280939291908181526020018383808284378201915050505050509190803590602001908201803590602001908080601f0160208091040260200160405190810160405280939291908181526020018383808284378201915050505050509190803590602001908201803590602001908080601f0160208091040260200160405190810160405280939291908181526020018383808284378201915050505050509190803590602001908201803590602001908080601f0160208091040260200160405190810160405280939291908181526020018383808284378201915050505050509190803590602001908201803590602001908080601f0160208091040260200160405190810160405280939291908181526020018383808284378201915050505050509190803590602001908201803590602001908080601f0160208091040260200160405190810160405280939291908181526020018383808284378201915050505050509190803590602001908201803590602001908080601f0160208091040260200160405190810160405280939291908181526020018383808284378201915050505050509190803590602001908201803590602001908080601f0160208091040260200160405190810160405280939291908181526020018383808284378201915050505050509190803573ffffffffffffffffffffffffffffffffffffffff16906020019091905050612995565b005b3415610c0c57600080fd5b610c38600480803573ffffffffffffffffffffffffffffffffffffffff16906020019091905050612edd565b604051808473ffffffffffffffffffffffffffffffffffffffff1673ffffffffffffffffffffffffffffffffffffffff1681526020018060200180602001838103835285818151815260200191508051906020019080838360005b83811015610cae578082015181840152602081019050610c93565b50505050905090810190601f168015610cdb5780820380516001836020036101000a031916815260200191505b50838103825284818151815260200191508051906020019080838360005b83811015610d14578082015181840152602081019050610cf9565b50505050905090810190601f168015610d415780820380516001836020036101000a031916815260200191505b509550505050505060405180910390f35b3415610d5d57600080fd5b610dad600480803590602001908201803590602001908080601f01602080910402602001604051908101604052809392919081815260200183838082843782019150505050505091905050613124565b604051808215151515815260200191505060405180910390f35b3415610dd257600080fd5b611016600480803590602001908201803590602001908080601f0160208091040260200160405190810160405280939291908181526020018383808284378201915050505050509190803590602001908201803590602001908080601f0160208091040260200160405190810160405280939291908181526020018383808284378201915050505050509190803590602001908201803590602001908080601f0160208091040260200160405190810160405280939291908181526020018383808284378201915050505050509190803590602001908201803590602001908080601f0160208091040260200160405190810160405280939291908181526020018383808284378201915050505050509190803590602001908201803590602001908080601f0160208091040260200160405190810160405280939291908181526020018383808284378201915050505050509190803590602001908201803590602001908080601f0160208091040260200160405190810160405280939291908181526020018383808284378201915050505050509190803590602001908201803590602001908080601f0160208091040260200160405190810160405280939291908181526020018383808284378201915050505050509190803590602001908201803590602001908080601f0160208091040260200160405190810160405280939291908181526020018383808284378201915050505050509190803573ffffffffffffffffffffffffffffffffffffffff169060200190919050506131f8565b005b341561102357600080fd5b611092600480803590602001908201803590602001908080601f0160208091040260200160405190810160405280939291908181526020018383808284378201915050505050509190803573ffffffffffffffffffffffffffffffffffffffff16906020019091905050613740565b604051808215151515815260200191505060405180910390f35b34156110b757600080fd5b6110e3600480803573ffffffffffffffffffffffffffffffffffffffff16906020019091905050613960565b604051808215151515815260200191505060405180910390f35b341561110857600080fd5b6111ba600480803590602001908201803590602001908080601f0160208091040260200160405190810160405280939291908181526020018383808284378201915050505050509190803573ffffffffffffffffffffffffffffffffffffffff1690602001909190803590602001908201803590602001908080601f01602080910402602001604051908101604052809392919081815260200183838082843782019150505050505091905050613a1e565b005b34156111c757600080fd5b6111f3600480803573ffffffffffffffffffffffffffffffffffffffff16906020019091905050613bd1565b604051808215151515815260200191505060405180910390f35b6000600660000160009054906101000a900473ffffffffffffffffffffffffffffffffffffffff1673ffffffffffffffffffffffffffffffffffffffff168273ffffffffffffffffffffffffffffffffffffffff16149050919050565b600080600080915060009050600090505b60018054905081101561139757836040518082805190602001908083835b6020831015156112be5780518252602082019150602081019050602083039250611299565b6001836020036101000a0380198251168184511680821785525050505050509050019150506040518091039020600019166001828154811015156112fe57fe5b9060005260206000209060040201600001604051808280546001816001161561010002031660029004801561136a5780601f1061134857610100808354040283529182019161136a565b820191906000526020600020905b815481529060010190602001808311611356575b5050915050604051809103902060001916141561138a5760019150611397565b808060010191505061127b565b60018214156113a957600192506113ae565b600092505b5050919050565b6113bd613c7c565b6113c5613c7c565b6113cd613c7c565b6113d5613c7c565b6113dd613c7c565b6113e5613c7c565b60006113f13389611ba9565b156114d3576001600360008a73ffffffffffffffffffffffffffffffffffffffff1673ffffffffffffffffffffffffffffffffffffffff1681526020019081526020016000206006015410156114ce573373ffffffffffffffffffffffffffffffffffffffff167f711f53992653efd84e303c9bbea6e93fb98099ed7adb18629b87abc9a3d42e156000604051808215151515815260200180602001828103825260148152602001807f55736572206e6f74207265636f676e697a6564200000000000000000000000008152506020019250505060405180910390a25b611560565b3373ffffffffffffffffffffffffffffffffffffffff167f881c572b44306d3454e8081497172916297eede05f5c23bc734a15beffbe853f60006040518082151515158152602001806020018281038252600c8152602001807f496e76616c69642042616e6b00000000000000000000000000000000000000008152506020019250505060405180910390a25b6001600360008a73ffffffffffffffffffffffffffffffffffffffff1673ffffffffffffffffffffffffffffffffffffffff16815260200190815260200160002060010180549050039050600360008973ffffffffffffffffffffffffffffffffffffffff1673ffffffffffffffffffffffffffffffffffffffff168152602001908152602001600020600101818154811015156115fa57fe5b9060005260206000209060070201600001600360008a73ffffffffffffffffffffffffffffffffffffffff1673ffffffffffffffffffffffffffffffffffffffff1681526020019081526020016000206001018281548110151561165a57fe5b9060005260206000209060070201600101600360008b73ffffffffffffffffffffffffffffffffffffffff1673ffffffffffffffffffffffffffffffffffffffff168152602001908152602001600020600101838154811015156116ba57fe5b9060005260206000209060070201600201600360008c73ffffffffffffffffffffffffffffffffffffffff1673ffffffffffffffffffffffffffffffffffffffff1681526020019081526020016000206001018481548110151561171a57fe5b9060005260206000209060070201600301600360008d73ffffffffffffffffffffffffffffffffffffffff1673ffffffffffffffffffffffffffffffffffffffff1681526020019081526020016000206001018581548110151561177a57fe5b9060005260206000209060070201600401600360008e73ffffffffffffffffffffffffffffffffffffffff1673ffffffffffffffffffffffffffffffffffffffff168152602001908152602001600020600101868154811015156117da57fe5b9060005260206000209060070201600501858054600181600116156101000203166002900480601f0160208091040260200160405190810160405280929190818152602001828054600181600116156101000203166002900480156118805780601f1061185557610100808354040283529160200191611880565b820191906000526020600020905b81548152906001019060200180831161186357829003601f168201915b50505050509550848054600181600116156101000203166002900480601f01602080910402602001604051908101604052809291908181526020018280546001816001161561010002031660029004801561191c5780601f106118f15761010080835404028352916020019161191c565b820191906000526020600020905b8154815290600101906020018083116118ff57829003601f168201915b50505050509450838054600181600116156101000203166002900480601f0160208091040260200160405190810160405280929190818152602001828054600181600116156101000203166002900480156119b85780601f1061198d576101008083540402835291602001916119b8565b820191906000526020600020905b81548152906001019060200180831161199b57829003601f168201915b50505050509350828054600181600116156101000203166002900480601f016020809104026020016040519081016040528092919081815260200182805460018160011615610100020316600290048015611a545780601f10611a2957610100808354040283529160200191611a54565b820191906000526020600020905b815481529060010190602001808311611a3757829003601f168201915b50505050509250818054600181600116156101000203166002900480601f016020809104026020016040519081016040528092919081815260200182805460018160011615610100020316600290048015611af05780601f10611ac557610100808354040283529160200191611af0565b820191906000526020600020905b815481529060010190602001808311611ad357829003601f168201915b50505050509150808054600181600116156101000203166002900480601f016020809104026020016040519081016040528092919081815260200182805460018160011615610100020316600290048015611b8c5780601f10611b6157610100808354040283529160200191611b8c565b820191906000526020600020905b815481529060010190602001808311611b6f57829003601f168201915b505050505090509650965096509650965096505091939550919395565b600080611bb4613c90565b60009150600360008573ffffffffffffffffffffffffffffffffffffffff1673ffffffffffffffffffffffffffffffffffffffff16815260200190815260200160002060020160008673ffffffffffffffffffffffffffffffffffffffff1673ffffffffffffffffffffffffffffffffffffffff1681526020019081526020016000208054600181600116156101000203166002900480601f016020809104026020016040519081016040528092919081815260200182805460018160011615610100020316600290048015611ccb5780601f10611ca057610100808354040283529160200191611ccb565b820191906000526020600020905b815481529060010190602001808311611cae57829003601f168201915b50505050509050600081511415611ce157600191505b6001821415611cf35760009250611cf8565b600192505b505092915050565b611d08613c7c565b611d10613c7c565b611d18613c7c565b611d20613c7c565b611d28613c7c565b611d30613c7c565b600360008873ffffffffffffffffffffffffffffffffffffffff1673ffffffffffffffffffffffffffffffffffffffff1681526020019081526020016000206001016001600360008a73ffffffffffffffffffffffffffffffffffffffff1673ffffffffffffffffffffffffffffffffffffffff1681526020019081526020016000206001018054905003815481101515611dc757fe5b9060005260206000209060070201600001600360008973ffffffffffffffffffffffffffffffffffffffff1673ffffffffffffffffffffffffffffffffffffffff1681526020019081526020016000206001016001600360008b73ffffffffffffffffffffffffffffffffffffffff1673ffffffffffffffffffffffffffffffffffffffff1681526020019081526020016000206001018054905003815481101515611e6f57fe5b9060005260206000209060070201600101600360008a73ffffffffffffffffffffffffffffffffffffffff1673ffffffffffffffffffffffffffffffffffffffff1681526020019081526020016000206001016001600360008c73ffffffffffffffffffffffffffffffffffffffff1673ffffffffffffffffffffffffffffffffffffffff1681526020019081526020016000206001018054905003815481101515611f1757fe5b9060005260206000209060070201600201600360008b73ffffffffffffffffffffffffffffffffffffffff1673ffffffffffffffffffffffffffffffffffffffff1681526020019081526020016000206001016001600360008d73ffffffffffffffffffffffffffffffffffffffff1673ffffffffffffffffffffffffffffffffffffffff1681526020019081526020016000206001018054905003815481101515611fbf57fe5b9060005260206000209060070201600301600360008c73ffffffffffffffffffffffffffffffffffffffff1673ffffffffffffffffffffffffffffffffffffffff1681526020019081526020016000206001016001600360008e73ffffffffffffffffffffffffffffffffffffffff1673ffffffffffffffffffffffffffffffffffffffff168152602001908152602001600020600101805490500381548110151561206757fe5b9060005260206000209060070201600401600360008d73ffffffffffffffffffffffffffffffffffffffff1673ffffffffffffffffffffffffffffffffffffffff1681526020019081526020016000206001016001600360008f73ffffffffffffffffffffffffffffffffffffffff1673ffffffffffffffffffffffffffffffffffffffff168152602001908152602001600020600101805490500381548110151561210f57fe5b9060005260206000209060070201600501858054600181600116156101000203166002900480601f0160208091040260200160405190810160405280929190818152602001828054600181600116156101000203166002900480156121b55780601f1061218a576101008083540402835291602001916121b5565b820191906000526020600020905b81548152906001019060200180831161219857829003601f168201915b50505050509550848054600181600116156101000203166002900480601f0160208091040260200160405190810160405280929190818152602001828054600181600116156101000203166002900480156122515780601f1061222657610100808354040283529160200191612251565b820191906000526020600020905b81548152906001019060200180831161223457829003601f168201915b50505050509450838054600181600116156101000203166002900480601f0160208091040260200160405190810160405280929190818152602001828054600181600116156101000203166002900480156122ed5780601f106122c2576101008083540402835291602001916122ed565b820191906000526020600020905b8154815290600101906020018083116122d057829003601f168201915b50505050509350828054600181600116156101000203166002900480601f0160208091040260200160405190810160405280929190818152602001828054600181600116156101000203166002900480156123895780601f1061235e57610100808354040283529160200191612389565b820191906000526020600020905b81548152906001019060200180831161236c57829003601f168201915b50505050509250818054600181600116156101000203166002900480601f0160208091040260200160405190810160405280929190818152602001828054600181600116156101000203166002900480156124255780601f106123fa57610100808354040283529160200191612425565b820191906000526020600020905b81548152906001019060200180831161240857829003601f168201915b50505050509150808054600181600116156101000203166002900480601f0160208091040260200160405190810160405280929190818152602001828054600181600116156101000203166002900480156124c15780601f10612496576101008083540402835291602001916124c1565b820191906000526020600020905b8154815290600101906020018083116124a457829003601f168201915b5050505050905095509550955095509550955091939550919395565b6000600660000160009054906101000a900473ffffffffffffffffffffffffffffffffffffffff16905090565b612512613c7c565b600061251c613c7c565b6000806000915060009050600090505b6001805490508110156125c3578573ffffffffffffffffffffffffffffffffffffffff1660018281548110151561255f57fe5b906000526020600020906004020160010160009054906101000a900473ffffffffffffffffffffffffffffffffffffffff1673ffffffffffffffffffffffffffffffffffffffff1614156125b657600191506125c3565b808060010191505061252c565b600082141561270b578573ffffffffffffffffffffffffffffffffffffffff167f9080152ba887e48daa7f3b6f6c71b2484bdf77dec6957884348fd6930bfe8e4e6000604051808215151515815260200180602001828103825260278152602001807f49642070726f7669646564206973206e6f74207265676973746572656420617381526020017f20612062616e6b000000000000000000000000000000000000000000000000008152506040019250505060405180910390a2737fbff5d4496fd3539c9a73ea54280982ca13e9e36040805190810160405280600181526020017f2000000000000000000000000000000000000000000000000000000000000000815250906040805190810160405280600181526020017f20000000000000000000000000000000000000000000000000000000000000008152509450945094506128cb565b60018181548110151561271a57fe5b906000526020600020906004020160000160018281548110151561273a57fe5b906000526020600020906004020160010160009054906101000a900473ffffffffffffffffffffffffffffffffffffffff1660018381548110151561277b57fe5b9060005260206000209060040201600201828054600181600116156101000203166002900480601f0160208091040260200160405190810160405280929190818152602001828054600181600116156101000203166002900480156128215780601f106127f657610100808354040283529160200191612821565b820191906000526020600020905b81548152906001019060200180831161280457829003601f168201915b50505050509250808054600181600116156101000203166002900480601f0160208091040260200160405190810160405280929190818152602001828054600181600116156101000203166002900480156128bd5780601f10612892576101008083540402835291602001916128bd565b820191906000526020600020905b8154815290600101906020018083116128a057829003601f168201915b505050505090509450945094505b50509193909250565b60008060006001600360008673ffffffffffffffffffffffffffffffffffffffff1673ffffffffffffffffffffffffffffffffffffffff16815260200190815260200160002060010180549050039150600360008573ffffffffffffffffffffffffffffffffffffffff1673ffffffffffffffffffffffffffffffffffffffff1681526020019081526020016000206001018281548110151561297357fe5b90600052602060002090600702016006015490506103e8810292505050919050565b600061299f613ca4565b6129a7613c7c565b6129af613d06565b6129b833613960565b15612e415742935060e0604051908101604052808e81526020018d81526020018c81526020018b81526020018a81526020018981526020018581525092506129ff3361250a565b5050915081600360008773ffffffffffffffffffffffffffffffffffffffff1673ffffffffffffffffffffffffffffffffffffffff16815260200190815260200160002060020160003373ffffffffffffffffffffffffffffffffffffffff1673ffffffffffffffffffffffffffffffffffffffff1681526020019081526020016000209080519060200190612a96929190613d4a565b506060604051908101604052803373ffffffffffffffffffffffffffffffffffffffff168152602001888152602001878152509050600360008673ffffffffffffffffffffffffffffffffffffffff1673ffffffffffffffffffffffffffffffffffffffff1681526020019081526020016000206001018054806001018281612b1f9190613dca565b916000526020600020906007020160008590919091506000820151816000019080519060200190612b51929190613dfc565b506020820151816001019080519060200190612b6e929190613dfc565b506040820151816002019080519060200190612b8b929190613dfc565b506060820151816003019080519060200190612ba8929190613dfc565b506080820151816004019080519060200190612bc5929190613dfc565b5060a0820151816005019080519060200190612be2929190613dfc565b5060c0820151816006015550505080600360008773ffffffffffffffffffffffffffffffffffffffff1673ffffffffffffffffffffffffffffffffffffffff16815260200190815260200160002060030160008201518160000160006101000a81548173ffffffffffffffffffffffffffffffffffffffff021916908373ffffffffffffffffffffffffffffffffffffffff1602179055506020820151816001019080519060200190612c96929190613e7c565b506040820151816002019080519060200190612cb3929190613e7c565b50905050600a600360008773ffffffffffffffffffffffffffffffffffffffff1673ffffffffffffffffffffffffffffffffffffffff168152602001908152602001600020600601819055506005600081548092919060010191905055508460048b6040518082805190602001908083835b602083101515612d4a5780518252602082019150602081019050602083039250612d25565b6001836020036101000a038019825116818451168082178552505050505050905001915050908152602001604051809103902060006101000a81548173ffffffffffffffffffffffffffffffffffffffff021916908373ffffffffffffffffffffffffffffffffffffffff16021790555084600360008773ffffffffffffffffffffffffffffffffffffffff1673ffffffffffffffffffffffffffffffffffffffff16815260200190815260200160002060000160006101000a81548173ffffffffffffffffffffffffffffffffffffffff021916908373ffffffffffffffffffffffffffffffffffffffff160217905550612ece565b3373ffffffffffffffffffffffffffffffffffffffff167f9080152ba887e48daa7f3b6f6c71b2484bdf77dec6957884348fd6930bfe8e4e60006040518082151515158152602001806020018281038252601d8152602001807f53656e646572206e6f7420726567697374657265642061732062616e6b0000008152506020019250505060405180910390a25b50505050505050505050505050565b6000612ee7613c90565b612eef613c90565b600360008573ffffffffffffffffffffffffffffffffffffffff1673ffffffffffffffffffffffffffffffffffffffff16815260200190815260200160002060030160000160009054906101000a900473ffffffffffffffffffffffffffffffffffffffff16600360008673ffffffffffffffffffffffffffffffffffffffff1673ffffffffffffffffffffffffffffffffffffffff168152602001908152602001600020600301600101600360008773ffffffffffffffffffffffffffffffffffffffff1673ffffffffffffffffffffffffffffffffffffffff168152602001908152602001600020600301600201818054600181600116156101000203166002900480601f0160208091040260200160405190810160405280929190818152602001828054600181600116156101000203166002900480156130745780601f1061304957610100808354040283529160200191613074565b820191906000526020600020905b81548152906001019060200180831161305757829003601f168201915b50505050509150808054600181600116156101000203166002900480601f0160208091040260200160405190810160405280929190818152602001828054600181600116156101000203166002900480156131105780601f106130e557610100808354040283529160200191613110565b820191906000526020600020905b8154815290600101906020018083116130f357829003601f168201915b505050505090509250925092509193909250565b60008073ffffffffffffffffffffffffffffffffffffffff166004836040518082805190602001908083835b6020831015156131755780518252602082019150602081019050602083039250613150565b6001836020036101000a038019825116818451168082178552505050505050905001915050908152602001604051809103902060009054906101000a900473ffffffffffffffffffffffffffffffffffffffff1673ffffffffffffffffffffffffffffffffffffffff1614156131ee57600090506131f3565b600190505b919050565b6000613202613ca4565b61320a613c7c565b613212613d06565b61321b33613960565b156136a45742935060e0604051908101604052808e81526020018d81526020018c81526020018b81526020018a81526020018981526020018581525092506132623361250a565b5050915081600360008773ffffffffffffffffffffffffffffffffffffffff1673ffffffffffffffffffffffffffffffffffffffff16815260200190815260200160002060020160003373ffffffffffffffffffffffffffffffffffffffff1673ffffffffffffffffffffffffffffffffffffffff16815260200190815260200160002090805190602001906132f9929190613d4a565b506060604051908101604052803373ffffffffffffffffffffffffffffffffffffffff168152602001888152602001878152509050600360008673ffffffffffffffffffffffffffffffffffffffff1673ffffffffffffffffffffffffffffffffffffffff16815260200190815260200160002060010180548060010182816133829190613dca565b9160005260206000209060070201600085909190915060008201518160000190805190602001906133b4929190613dfc565b5060208201518160010190805190602001906133d1929190613dfc565b5060408201518160020190805190602001906133ee929190613dfc565b50606082015181600301908051906020019061340b929190613dfc565b506080820151816004019080519060200190613428929190613dfc565b5060a0820151816005019080519060200190613445929190613dfc565b5060c0820151816006015550505080600360008773ffffffffffffffffffffffffffffffffffffffff1673ffffffffffffffffffffffffffffffffffffffff16815260200190815260200160002060030160008201518160000160006101000a81548173ffffffffffffffffffffffffffffffffffffffff021916908373ffffffffffffffffffffffffffffffffffffffff16021790555060208201518160010190805190602001906134f9929190613e7c565b506040820151816002019080519060200190613516929190613e7c565b5090505084600360008773ffffffffffffffffffffffffffffffffffffffff1673ffffffffffffffffffffffffffffffffffffffff16815260200190815260200160002060000160006101000a81548173ffffffffffffffffffffffffffffffffffffffff021916908373ffffffffffffffffffffffffffffffffffffffff160217905550600a600360008773ffffffffffffffffffffffffffffffffffffffff1673ffffffffffffffffffffffffffffffffffffffff168152602001908152602001600020600601819055506005600081548092919060010191905055508460048b6040518082805190602001908083835b60208310151561362e5780518252602082019150602081019050602083039250613609565b6001836020036101000a038019825116818451168082178552505050505050905001915050908152602001604051809103902060006101000a81548173ffffffffffffffffffffffffffffffffffffffff021916908373ffffffffffffffffffffffffffffffffffffffff160217905550613731565b3373ffffffffffffffffffffffffffffffffffffffff167f9080152ba887e48daa7f3b6f6c71b2484bdf77dec6957884348fd6930bfe8e4e60006040518082151515158152602001806020018281038252601d8152602001807f53656e646572206e6f7420726567697374657265642061732062616e6b0000008152506020019250505060405180910390a25b50505050505050505050505050565b600080600080915060009050600090505b60018054905081101561386d57846040518082805190602001908083835b602083101515613794578051825260208201915060208101905060208303925061376f565b6001836020036101000a0380198251168184511680821785525050505050509050019150506040518091039020600019166001828154811015156137d457fe5b906000526020600020906004020160000160405180828054600181600116156101000203166002900480156138405780601f1061381e576101008083540402835291820191613840565b820191906000526020600020905b81548152906001019060200180831161382c575b50509150506040518091039020600019161415613860576001915061386d565b8080600101915050613751565b60018214156139535784600360008673ffffffffffffffffffffffffffffffffffffffff1673ffffffffffffffffffffffffffffffffffffffff16815260200190815260200160002060020160006001848154811015156138ca57fe5b906000526020600020906004020160010160009054906101000a900473ffffffffffffffffffffffffffffffffffffffff1673ffffffffffffffffffffffffffffffffffffffff1673ffffffffffffffffffffffffffffffffffffffff1681526020019081526020016000209080519060200190613949929190613d4a565b5060019250613958565b600092505b505092915050565b6000806000809150600090505b600180549050811015613a00578373ffffffffffffffffffffffffffffffffffffffff166001828154811015156139a057fe5b906000526020600020906004020160010160009054906101000a900473ffffffffffffffffffffffffffffffffffffffff1673ffffffffffffffffffffffffffffffffffffffff1614156139f357600191505b808060010191505061396d565b6001821415613a125760019250613a17565b600092505b5050919050565b613a26613efc565b613a2f3361120d565b15613b3e576080604051908101604052808581526020018473ffffffffffffffffffffffffffffffffffffffff168152602001838152602001600a815250905060018054806001018281613a839190613f47565b916000526020600020906004020160008390919091506000820151816000019080519060200190613ab5929190613dfc565b5060208201518160010160006101000a81548173ffffffffffffffffffffffffffffffffffffffff021916908373ffffffffffffffffffffffffffffffffffffffff1602179055506040820151816002019080519060200190613b19929190613dfc565b5060608201518160030155505050600260008154809291906001019190505550613bcb565b3373ffffffffffffffffffffffffffffffffffffffff167f7625930be11e2f83fcd7fd4659ad575891de33466bd2e563a895fcbc8e8b17f160006040518082151515158152602001806020018281038252601e8152602001807f53656e646572206e6f7420726567697374657265642061732061646d696e00008152506020019250505060405180910390a25b50505050565b60008173ffffffffffffffffffffffffffffffffffffffff16600360008473ffffffffffffffffffffffffffffffffffffffff1673ffffffffffffffffffffffffffffffffffffffff16815260200190815260200160002060000160009054906101000a900473ffffffffffffffffffffffffffffffffffffffff1673ffffffffffffffffffffffffffffffffffffffff161415613c725760019050613c77565b600090505b919050565b602060405190810160405280600081525090565b602060405190810160405280600081525090565b60e060405190810160405280613cb8613f79565b8152602001613cc5613f79565b8152602001613cd2613f79565b8152602001613cdf613f79565b8152602001613cec613f79565b8152602001613cf9613f79565b8152602001600081525090565b606060405190810160405280600073ffffffffffffffffffffffffffffffffffffffff168152602001613d37613f8d565b8152602001613d44613f8d565b81525090565b828054600181600116156101000203166002900490600052602060002090601f016020900481019282601f10613d8b57805160ff1916838001178555613db9565b82800160010185558215613db9579182015b82811115613db8578251825591602001919060010190613d9d565b5b509050613dc69190613fa1565b5090565b815481835581811511613df757600702816007028360005260206000209182019101613df69190613fc6565b5b505050565b828054600181600116156101000203166002900490600052602060002090601f016020900481019282601f10613e3d57805160ff1916838001178555613e6b565b82800160010185558215613e6b579182015b82811115613e6a578251825591602001919060010190613e4f565b5b509050613e789190613fa1565b5090565b828054600181600116156101000203166002900490600052602060002090601f016020900481019282601f10613ebd57805160ff1916838001178555613eeb565b82800160010185558215613eeb579182015b82811115613eea578251825591602001919060010190613ecf565b5b509050613ef89190613fa1565b5090565b608060405190810160405280613f10613f79565b8152602001600073ffffffffffffffffffffffffffffffffffffffff168152602001613f3a613f79565b8152602001600081525090565b815481835581811511613f7457600402816004028360005260206000209182019101613f73919061404d565b5b505050565b602060405190810160405280600081525090565b602060405190810160405280600081525090565b613fc391905b80821115613fbf576000816000905550600101613fa7565b5090565b90565b61404a91905b808211156140465760008082016000613fe591906140bb565b600182016000613ff591906140bb565b60028201600061400591906140bb565b60038201600061401591906140bb565b60048201600061402591906140bb565b60058201600061403591906140bb565b600682016000905550600701613fcc565b5090565b90565b6140b891905b808211156140b4576000808201600061406c91906140bb565b6001820160006101000a81549073ffffffffffffffffffffffffffffffffffffffff02191690556002820160006140a391906140bb565b600382016000905550600401614053565b5090565b90565b50805460018160011615610100020316600290046000825580601f106140e15750614100565b601f0160209004906000526020600020908101906140ff9190613fa1565b5b505600a165627a7a72305820f79a903b72aae1bb20b65699aecaf8ed5b222fff4d43144783603eb42662b52b0029",
  "source": "pragma solidity ^0.4.18;\n\n\n\ncontract KYC{\n    //events\n\n    event isAdminEvent(address indexed sender,bool status,string msg);\n    \n   // event isBankEvent(address indexed sender,bool status,string msg);\n\n    event noSuchBankEvent(address indexed sender,bool status,string msg);\n\n    event noSuchUserEvent(address indexed sender,bool status,string msg);\n\n    event invalidBankEvent(address indexed sender,bool status,string msg);\n     event invalidUserEvent(address indexed sender,bool status,string msg);\n     \n     uint timeout=60;//seconds\n    //state variables\n    struct Bank{\n        string name;\n        address id;\n        string email;\n        uint uninit;\n     //   string publickey;\n    }\n   Bank[] Banks;\n   uint bankscount;\n\n    struct UserDetails{\n        string firstName;\n        string lastName;\n        string dateOfBirth;\n        string aadharNo;\n        string email;\n        string mobileNo;\n       uint lastModified;\n     //   uint valid;\n    }\n\n    struct LastUpdate{\n        address id; //bank address\n        bytes sign; //signed hash is present here.\n        bytes hashmessage;\n    }\n\n    struct User{\n        address id;\n   //     string KYCID;\n        UserDetails [] details;\n     // no need of index pointing to last modified user data!\n        mapping(address => string)  ACL; // holds list of bank addresses and the names as values\n        LastUpdate lu;\n        uint np;\n    }\n     mapping(address => User) users;\n\n     //mapping of user and  aadhar for validation purposes\n    mapping(string => address) useraadhar;\n  \n    uint userscount;\n\n    struct Verifier{\n        address Id;\n        address bankId;\n    }\n\n    struct Admin{\n     address Id;\n    }\n\n      Admin a;\n\n   // mapping(address=>string) bankIdToPublickey;\n    \n  \n    // Constructor\nfunction KYC() public {\n    a.Id = 0x7fbFf5D4496fD3539C9a73Ea54280982cA13E9E3;\n}\n\nfunction getAdminID() public view returns (\n    address _id\n){\n    return( a.Id);\n}\nfunction isAdmin(address _addr) public constant returns (bool){\n    return _addr==a.Id;\n}\nmodifier isadmin(){\n    if(isAdmin(msg.sender)){\n        _;\n    }\n    else{\n        isAdminEvent(msg.sender,false,\"Sender not registered as admin\");\n    }\n}\n\nfunction isBank(address _addr)  public constant returns (bool){\n    uint flag=0;\nfor(uint i=0;i<Banks.length;i++)\n{\n    \n    if(Banks[i].id == _addr)\n    {\n        flag=1;\n    }\n}\nif(flag==1)\nreturn true;\n\nreturn false;\n}\n\n\n//modifier for bank\n\nmodifier isbank()\n{\n    if(isBank(msg.sender))\n    {\n        _;\n    }\n    else{\n        noSuchBankEvent(msg.sender,false,\"Sender not registered as bank\");\n    }\n}\n\n//returns false when user is not registered\n//true when user is registered\nfunction isalreadyRegisteredUser(string _aadharNo) public returns(bool)\n{\n    if(useraadhar[_aadharNo]==0x0000000000000000000000000000000000000000)\n    {\n        return false;\n    }\n    else{\n        return true;\n    }\n}\n\nfunction updateKYC( string _firstName,\n        string _lastName,\n        string _dateOfBirth,\n        string _aadharNo,\n        string _email,\n        string _mobileNo,bytes _sign,bytes _hashmessage, address _useraddress) public isbank\n\n        {\n            uint time=now;\n            UserDetails memory d = UserDetails(_firstName,_lastName,_dateOfBirth,_aadharNo,_email,_mobileNo,time);\n            var (name,,)=getBank(msg.sender);\n              users[_useraddress].ACL[msg.sender]=name;\n               LastUpdate memory l = LastUpdate(msg.sender,_sign,_hashmessage);\n        users[_useraddress].details.push(d);\n        users[_useraddress].lu=l;\n        users[_useraddress].np=10;\n        userscount++; \n        useraadhar[_aadharNo]=_useraddress;\n        users[_useraddress].id=_useraddress;\n       \n        }\n\n\n\n\n//function registerBank(string _name,address _id,string _email,string _publickey) public isadmin\nfunction registerBank(string _name,address _id,string _email) public isadmin\n{\n    Bank memory bank = Bank(_name, _id, _email,10);\n    Banks.push(bank);\n    bankscount++;\n}\n\nfunction gethash(address user_add) public returns(address,bytes,bytes){\n\n    //if(isValidUser(user_add))\n    //{\n        return(users[user_add].lu.id,users[user_add].lu.sign,users[user_add].lu.hashmessage);\n   // }\n   // else\n   // {\n    //   noSuchUserEvent(user_add,false,\"Id provided is not registered as a user\"); \n   // }\n\n}\n\n//validation for user already exist in the system is pending\nfunction registerUser( string _firstName,\n        string _lastName,\n        string _dateOfBirth,\n        string _aadharNo,\n        string _email,\n        string _mobileNo,bytes _sign,bytes _hashmessage, address _useraddress) public isbank\n{\n   \nuint time=now;\n    UserDetails memory d = UserDetails(_firstName,_lastName,_dateOfBirth,_aadharNo,_email,_mobileNo,time);\n      var (name,,)=getBank(msg.sender);\n              users[_useraddress].ACL[msg.sender]=name;\n    LastUpdate memory l = LastUpdate(msg.sender,_sign,_hashmessage);\n    users[_useraddress].details.push(d);\n    users[_useraddress].lu=l;\n    users[_useraddress].id=_useraddress;\n    users[_useraddress].np=10;\n    userscount++;\n    useraadhar[_aadharNo]=_useraddress;\n    \n\n}\n//validation function for getUserforBank\n\n    \n\nfunction isValidBank(address _bankid,address _useraddress) public view returns (bool){\n    uint flag=0;\n\n    bytes memory bname=bytes(users[_useraddress].ACL[_bankid]);\n \n        if( bname.length == 0 )\n        {\n            flag=1;\n\n        }\n    \n    if(flag==1)\n    {\n        return false;\n    }\n    return true;\n}\n\n\nfunction getLastModified(address _userid) public returns(uint)\n{\n    uint index= users[_userid].details.length-1;\n   uint val=users[_userid].details[index].lastModified;\n           return(val*1000);\n}\n\n// function updateUserFlag(address _userid) public returns(uint)\n// {\n//     uint index= users[_userid].details.length-1;\n//             return(users[_userid].details[index].valid);\n//      //  return(10);\n// }\n\n\n//getter for user details for a bank \nfunction getUserforBank(address _userid) public  returns(\n  string firstName,string lastName,\n        string dateOfBirth,\n        string aadharNo,\n        string email,\n        string mobileNo)//,address acllast,address lubank)\n        {\n\n            if(isValidBank(msg.sender,_userid))\n            {\n            if(users[_userid].np<1)\n            {\n              noSuchUserEvent(msg.sender,false,\"User not recognized \");   \n            }\n             }\n             else\n             {\n                invalidBankEvent(msg.sender,false,\"Invalid Bank\");\n             }\n            uint index= users[_userid].details.length-1;\n            return(users[_userid].details[index].firstName,\n            users[_userid].details[index].lastName,\n            users[_userid].details[index].dateOfBirth,\n            users[_userid].details[index].aadharNo,\n            users[_userid].details[index].email,\n            users[_userid].details[index].mobileNo\n          //  users[_userid].ACL[users[_userid].ACL.length-1],\n          //  users[_userid].lu.id\n          );\n}\n\n\n\nfunction isValidUser(address _userid) public returns(bool)\n{\n    // if(users[_userid].np < 1)\n    // {\n    // noSuchUserEvent(msg.sender,false,\"User not recognized \");\n    // return false;   \n    // }\n    // else{\n       if(users[_userid].id == _userid)\n        {\n           \n             return true;\n        }\n\n        else\n        {\n        return false;\n        }\n    }\n\n\n\n\nmodifier isvaliduser()\n{\n    if(isValidUser(msg.sender))\n    {\n        _;\n    }\n    else\n    {\n      invalidUserEvent(msg.sender,false,\"Invalid User\");\n    }\n\n}\nfunction getUserforUser(address _userid) public returns(\n    string firstName,string lastName,\n    string dateOfBirth,\n    string aadharNo,\n    string email,\n    string mobileNo){\n        return(users[_userid].details[users[_userid].details.length-1].firstName,\n        users[_userid].details[users[_userid].details.length-1].lastName,\n        users[_userid].details[users[_userid].details.length-1].dateOfBirth,\n        users[_userid].details[users[_userid].details.length-1].aadharNo,\n        users[_userid].details[users[_userid].details.length-1].email,\n        users[_userid].details[users[_userid].details.length-1].mobileNo\n        //  users[_userid].ACL[users[_userid].ACL.length-1],\n        //  users[_userid].lu.id\n        );\n} \n//getter for bank\n\nfunction getBank(address _id) public returns (\n    string name,\n    address id,\n    string email\n){\n    //please send only valid bank ids here.\n    uint flag=0;\n    uint i=0;\n    for(i=0;i<Banks.length;i++){\n        if(Banks[i].id==_id){\n            flag=1;\n            break;\n        }\n    }\n    if(flag==0){\n        noSuchBankEvent(_id,false,\"Id provided is not registered as a bank\");\n        return(\" \",0x7fbFf5D4496fD3539C9a73Ea54280982cA13E9E3 , \" \");\n    }\n    return(Banks[i].name, Banks[i].id, Banks[i].email);\n  }\n\n\nfunction addACL(string _name,address uid) public returns(bool){\n    uint flag=0;\n    uint i=0;\n    for(i=0;i<Banks.length;i++){\n        if(keccak256(Banks[i].name)==keccak256(_name)){\n            flag=1;\n            break;\n        }\n    }\n    if(flag==1)\n    {\n    users[uid].ACL[Banks[i].id]=_name;\n    return true;\n    }\n    else{\n        return false;\n\n    }\n\n\n}\n\nfunction alreadyExistingBank (string _name )public returns(bool){\nuint flag=0;\n    uint i=0;\n    for(i=0;i<Banks.length;i++) \n    {\n        if(keccak256(Banks[i].name)==keccak256(_name)){\n            flag=1;\n            break;\n        }\n    }\n   if(flag==1)\n   return true;\n   else\n   return false;\n\n\n}\n\n\n\n\n}\n\n",
  "sourcePath": "/home/HDUSER/ChainList/chainlist/contracts/KYC.sol",
  "compiler": {
    "name": "solc",
    "version": "0.4.18+commit.9cf6e910.Emscripten.clang"
  },
  "schemaVersion": "3.0.0",
  "updatedAt": "2019-04-27T22:43:44.516Z",
  "devdoc": {
    "methods": {}
  },
  "userdoc": {
    "methods": {}
  }
}